:020000040800F2
:1000000000000220B9020008BF020008C302000875
:1000100035030008390300088103000800000000D0
:10002000000000000000000000000000C9030008FC
:10003000CD03000800000000D1030008D51300081C
:10004000E5030008E5030008E5030008E5030008F0
:10005000E5030008E5030008E5030008E5030008E0
:10006000E5030008E5030008E5030008E5030008D0
:10007000E5030008E5030008E5030008E5030008C0
:10008000E5030008E5030008E5030008E5030008B0
:10009000E5030008E5030008E5030008E5030008A0
:1000A000E5030008E5030008E5030008E503000890
:1000B000E5030008E5030008E5030008E503000880
:1000C000E5030008E5030008E5030008E503000870
:1000D000E5030008E5030008E5030008E503000860
:1000E000E5030008E5030008E5030008E503000850
:1000F000E5030008E5030008E5030008E503000840
:10010000E5030008E5030008E5030008E50300082F
:10011000E5030008E5030008E5030008E50300081F
:10012000E5030008E5030008E5030008E50300080F
:10013000E5030008E5030008E5030008E5030008FF
:10014000E5030008E5030008E5030008E5030008EF
:10015000E5030008E5030008E5030008E5030008DF
:10016000E5030008E5030008E5030008E5030008CF
:10017000E5030008E5030008E503000800000000AF
:10018000E5030008E503000800B583B000F0BEFFFA
:10019000384B394A1360394A1360394906E011680F
:1001A0001960043304329842F9D82146354B9942FC
:1001B00005D20A684B6801F10C048868F3E72E4BFE
:1001C0001A68314B9A4200D0FEE72C4B1A682F4B2D
:1001D0009A42F9D1274B2E4A13602E4A13602E4BB8
:1001E00005E00020106004329342FAD80B462B4AF7
:1001F000934204D2194651F8082B5B68F4E7244B6C
:100200001B6813B9234B1B6803B1FEE701F03EF9ED
:10021000694601A800F00CFF214B224CE41AA410FF
:100220000025AC4214DC204B204CE41AA41000251D
:10023000AC4213DC0099019801F030F905461C4BE3
:100240001C4CE41AA410002C0EDC284600F0C2FE60
:10025000134B53F8253098470135E2E7124B53F81A
:10026000253098470135E3E7013C114B53F8243022
:100270009847E8E7BABADECA000000207400002000
:10028000E8030008000400087856341232547698C7
:100290008000002060010020000400081004000815
:1002A00010040008100400081004000814040008DA
:1002B000140400081404000808B5FFF765FF00BE29
:1002C000FEE71EF0040F0CBFEFF30880EFF3098088
:1002D0007146414A10472DE9F04182B004468846F4
:1002E000124B5E6B9F6B9D6A1B6B13F0020F03D06A
:1002F0000E4BDB6A002B0CDB0D4800F0ABFECDF89B
:1003000000803B4632462946204600F00BFF00BEE7
:10031000FEE74BF6AB6100F07FFF0028ECD04FF01A
:100320000042024BDA6202B0BDE8F08100ED00E06D
:100330004831000800BEFEE71EF0040F0CBFEFF3CB
:100340000880EFF309807146244A10472DE9F041F7
:1003500082B004468846084B5E6B9F6B9D6A0748D7
:1003600000F078FECDF800803B4632462946204614
:1003700000F0D8FE00BEFEE700ED00E058310008B6
:100380001EF0040F0CBFEFF30880EFF309807146F5
:10039000134A10472DE9F04182B004468846084BC5
:1003A0005E6B9F6B9D6A074800F054FECDF800809D
:1003B0003B4632462946204600F0B4FE00BEFEE72A
:1003C00000ED00E06431000800BEFEE700BEFEE77D
:1003D00000BEFEE770470000D70200084D0300088A
:0803E0009503000800BEFEE7D2
:1003E800E83200080000002078000020E832000809
:1003F80000000010000000108000002064010020B0
:0C04080000000010000000101D1700088C
:1004140010B50446074B1868074BA3FB003080094E
:1004240000F096F8002221464FF0FF3000F04CF81F
:10043400002010BD0C000020D34D621008B50B4BFA
:100444001A6842F400721A601A6842F480621A60F0
:100454001A6842F480721A60032000F017F80F2023
:10046400FFF7D6FF01F071F9002008BD003C0240FF
:10047400024A136801331360704700BF580100201B
:10048400014B1868704700BF5801002010B504469E
:10049400C31E042B0FD80A4AD36823F4E0631B0459
:1004A4001B0C240204F4E064234343F0BF6343F4CD
:1004B4000033D36010BDA421024800F0BFFDEAE779
:1004C40000ED00E0482F000870B505460C461646BE
:1004D4000F2A24D80F2C27D81A4BDB68C3F3022326
:1004E400C3F10702042A28BF0422191D062920D9B2
:1004F400033B012101FA02F2013A14409C4001FA43
:1005040003F3013B33401C43002D14DB2401E4B20C
:1005140005F1604505F5614585F8004370BDBC21D2
:10052400094800F08BFDD5E7BD21074800F086FDA2
:10053400D2E70023DDE705F00F052401E4B2034B05
:100544005C5570BD00ED00E0482F000814ED00E09C
:100554000138B0F1807F0AD2064B5860F021064A78
:1005640082F823100020986007221A607047012047
:10057400704700BF10E000E000ED00E010B5044655
:10058400042800D038B9042C0BD0094A136823F08E
:100594000403136010BD40F2B311064800F04EFD91
:1005A400F1E7034A136843F00403136010BD00BF6E
:1005B40010E000E0482F00082DE9F04782B08046A3
:1005C4000F46B54B984223D003F5806398421FD061
:1005D40003F5806398421BD003F58063984217D0DB
:1005E40003F58063984213D003F5806398420FD0DB
:1005F40003F5806398420BD003F58063984207D0DB
:1006040003F58063984203D0C521A44800F016FD89
:100614003B8853B37B68012B22D9112B20D0022BAA
:100624001ED0122B1CD09E4A934219D002F5801280
:10063400934215D002F58012934211D0A2F5F8121C
:1006440093420DD002F58012934209D002F5801234
:10065400934205D0032B03D0C721904800F0EEFC51
:10066400BB68022B06D800257AE0C6218B4800F02F
:10067400E5FCCFE7C821894800F0E0FCF3E73B69DB
:10068400FBB1092B1DD0012B1BD0022B19D0032B3E
:1006940017D0042B15D0052B13D0062B11D0072B04
:1006A4000FD0082B0DD00A2B0BD00B2B09D00C2B01
:1006B40007D00D2B05D00F2B03D0D921774800F09C
:1006C400BDFCE908083158F8213005F00702920012
:1006D4000F20904023EA0003386900FA02F2134322
:1006E40048F821304CE0EC216C4800F0A7FC63E0B2
:1006F400082100E00021A1400A430233694941F87E
:100704002320694B1A686FEA090302EA0301786837
:1007140010F4803F01D049EA0201634A1160526833
:1007240003EA0201786810F4003F01D049EA0201AB
:100734005D4A5160926803EA0201786810F4801FF0
:1007440001D049EA0201584A9160D268134079689D
:1007540011F4001F01D049EA0203534AD360013562
:100764000F2D00F296800124AC403B6804EA030993
:100774004C45F4D17B68022B81D0122B3FF47FAF20
:10078400D8F800304FEA450A032606FA0AF6F6437B
:1007940033407A6802F0030202FA0AF21343C8F8FB
:1007A40000307B685A1E012A03D9112B01D0122B69
:1007B40016D1FB68032B96D8D8F808303340FA6872
:1007C40002FA0AF21343C8F80830D8F8043023EACE
:1007D40004047B68C3F30013AB401C43C8F8044013
:1007E400D8F80C301E40BB6803FA0AF31E43C8F85D
:1007F4000C607B6813F0805FB1D0002301932B4B16
:100804005A6C42F480425A645B6C03F48043019353
:10081400019BAB08991C234A52F8212005F00301DF
:100824008C000F21A14022EA01021B4880453FF4BD
:1008340061AF1F4988451ED001F5806188451CD0F1
:1008440001F5806188451AD001F58061884518D08A
:1008540001F58061884516D001F58061884514D082
:1008640001F58061884512D001F5806188453FF427
:100874003FAF09213FE701213DE702213BE7032187
:1008840039E7042137E7052135E7062133E7072156
:1008940031E702B0BDE8F087000002407C2F000879
:1008A4000000111000380140003C014000380240B3
:1008B4000004024030B583B0044603680F2B2DD8E2
:1008C400236813F0010F3CD06368012B05D9052B75
:1008D40003D0FA219F4800F0B1FB9F4B9B6803F0C3
:1008E4000C03042B24D09C4B9B6803F00C03082BB3
:1008F40019D02279994B1A706368002B50D0FFF7F6
:10090400BFFD0546944B1B6813F4003F19D1FFF754
:10091400B7FD401B6428F5D90320D7E1F5218D48A4
:1009240000F08CFBCCE78C4B5B6813F4800FE0D0B9
:10093400894B1B6813F4003F03D06368002B00F05D
:10094400C281236813F0020F5CD0E368012B04D941
:100954004FF496717F4800F071FB23691F2B2ED84A
:100964007D4B9B6813F00C0F34D07B4B9B6803F0DA
:100974000C03082B29D0E368002B72D00122784B9A
:100984001A60FFF77DFD0546734B1B6813F0020FD9
:1009940058D1FFF775FD401B0228F5D9032095E1D6
:1009A400FFF76EFD05466C4B1B6813F4003FC8D07F
:1009B400FFF766FD401B6428F5D9032086E140F269
:1009C4002D11644800F03AFBCAE7634B5B6813F4EB
:1009D400800FD0D1604B1B6813F0020F04D0E36882
:1009E400012B01D0012071E15B48036823F0F80377
:1009F4002169F82292FAA2F2B2FA82F201FA02F220
:100A040013430360236813F0080F4ED06369012B6E
:100A140004D940F26D114F4800F010FB636993B3A1
:100A24000122504B1A60FFF72BFD05464A4B5B6FC2
:100A340013F0020F39D1FFF723FD401B0228F5D92B
:100A4400032043E14448036823F0F8032169F822B2
:100A540092FAA2F2B2FA82F201FA02F213430360AA
:100A6400D0E700223E4B1A60FFF70AFD05463A4BD9
:100A74001B6813F0020FC5D0FFF702FD401B0228CC
:100A8400F5D9032022E10022364B1A60FFF7F8FC67
:100A94000546314B5B6F13F0020F06D0FFF7F0FCF5
:100AA400401B0228F5D9032010E1236813F0040F3A
:100AB4005ED0A368012B06D9052B04D040F2971110
:100AC400244800F0BBFA00230193234B1A6C42F034
:100AD40080521A641B6C03F080530193019B224AD9
:100AE400136843F480731360FFF7CAFC05461E4B7A
:100AF4001B6813F4807F06D1FFF7C2FC401B022859
:100B0400F5D90320E2E0227A184B1A70A36883B166
:100B1400FFF7B6FC0546104B1B6F13F0020F27D1ED
:100B2400FFF7AEFC401B41F288339842F3D903200F
:100B3400CCE0FFF7A5FC0546074B1B6F13F0020F33
:100B440016D0FFF79DFC401B41F288339842F3D93D
:100B54000320BBE0BC2F00080038024002380240EA
:100B640000004742800E4742007000407038024047
:100B7400A369022B1FD8A369002B00F0A680554A55
:100B8400926802F00C02082A00F0A280022B18D00E
:100B94000022514B1A60FFF773FC04464D4B1B684F
:100BA40013F0007F00F08D80FFF76AFC001B022821
:100BB400F4D903208AE04FF4E671484800F03EFA85
:100BC400D9E7E3693BB1B3F5800F04D040F2D51106
:100BD400424800F033FA236A3F2B28D8636A323B39
:100BE400B3F5BF7F29D8A36A022B0AD0042B08D0FF
:100BF400062B06D0082B04D04FF4EC71374800F0D4
:100C04001DFAE36A043B0B2B1DD80022324B1A60F9
:100C1400FFF736FC05462F4B1B6813F0007F18D0F6
:100C2400FFF72EFC401B0228F5D903204EE04FF4B9
:100C3400EB712A4800F002FAD0E740F2D7112748B6
:100C440000F0FCF9CFE740F2D911244800F0F6F99E
:100C5400DBE7E369226A1343616A47F6C07292FADA
:100C6400A2F2B2FA82F201FA02F21343A26A520821
:100C7400013A4FF4403191FAA1F1B1FA81F18A407D
:100C84001343E16A4FF0706292FAA2F2B2FA82F26E
:100C940001FA02F213430F4A536001220E4B1A6009
:100CA400FFF7EEFB04460B4B1B6813F0007F06D1E5
:100CB400FFF7E6FB001B0228F5D9032006E000201D
:100CC40004E0002002E0012000E0002003B030BD79
:100CD4000120FBE70038024060004742BC2F0008B7
:100CE400214B9B6803F00C03042B3AD0082B01D052
:100CF4001E4870471C4B586800F03F005B6813F4B3
:100D0400800F1ED01A4AB2FBF0F2174B586847F610
:100D1400C073184093FAA3F3B3FA83F3D84000FBEB
:100D240002F0114B5B6803F440334FF4403292FA03
:100D3400A2F2B2FA82F2D34001335B00B0FBF3F0CB
:100D440070470A4AB2FBF0F2074B586847F6C07383
:100D5400184093FAA3F3B3FA83F3D84000FB02F0EC
:100D6400DFE70348704700BF003802400024F40066
:100D740000127A0070B504460D460368013B0E2B41
:100D840011D8072D15D88A4B1B6803F00F039D4219
:100D940015D9EBB2864A1370136803F00F039D4212
:100DA4000DD0012070BD40F23721824800F046F991
:100DB400E7E74FF40E717F4800F040F9E3E723685A
:100DC40013F0020F1DD0A368A3B1802B12D0902B77
:100DD40010D0A02B0ED0B02B0CD0C02B0AD0D02B0F
:100DE40008D0E02B06D0F02B04D040F24F217148FC
:100DF40000F024F9704A936823F0F003A1680B43D0
:100E04009360236813F0010F6DD06368032B29D816
:100E14006368012B2CD09A1E012A30D9664A1268C5
:100E240012F0020F00F0C28063498A6822F00302C4
:100E340013438B60FFF724FB06466368012B25D020
:100E4400022B32D0032B3FD05B4B9B6813F00C0F6B
:100E540049D0FFF715FB801B41F288339842F3D940
:100E6400032070BD40F25621524800F0E7F8CFE766
:100E7400514A126812F4003FD6D1012070BD4E4A87
:100E8400126812F0007FCFD1012070BD4A4B9B68DD
:100E940003F00C03042B26D0FFF7F2FA801B41F277
:100EA40088339842F2D9032070BD434B9B6803F00A
:100EB4000C03082B17D0FFF7E3FA801B41F28833A9
:100EC4009842F2D9032070BD3B4B9B6803F00C039E
:100ED4000C2B08D0FFF7D4FA801B41F288339842D8
:100EE400F2D9032070BD324B1B6803F00F039D42FF
:100EF40009D2EAB22E4B1A701B6803F00F039D420D
:100F040001D0012070BD236813F0040F19D0E368E9
:100F140083B1B3F5805F0DD0B3F5A05F0AD0B3F50C
:100F2400C05F07D0B3F5E05F04D04FF42D712148C2
:100F340000F084F8204A936823F4E053E1680B43FB
:100F44009360236813F0080F1AD0236983B1B3F5B3
:100F5400805F0DD0B3F5A05F0AD0B3F5C05F07D0B2
:100F6400B3F5E05F04D040F2BB21124800F066F80C
:100F7400114A936823F46043216943EAC1039360EF
:100F8400FFF7AEFE0C4B9B6803F0F003F02292FADD
:100F9400A2F2B2FA82F2D340084AD35CD840084B9A
:100FA40018600F20FFF734FA002070BD012070BDD7
:100FB400003C0240BC2F000800380240AC2F00085F
:100FC4000C000020014B1868704700BF0C00002083
:100FD400FEE7000008B5034800F052F80120FFF7CF
:100FE400F7FF00BFEC2F000808B503460C4A12684F
:100FF4005AB10B4A1068033323F003030344094A2C
:10100400934206D8064A136008BD0749044A116092
:10101400EFE701F05FFB0C2303604FF0FF3008BDE6
:101024008400002000FC01206401002001230360EF
:10103400014B0B60704700BF0400002008B50A464E
:101044000146024800F004F8FFF7C4FF003000082E
:101054000FB400B583B004AB53F8042B0193802183
:10106400064801F079FB002803DD0146034800F03F
:1010740047F803B05DF804EB04B070478C0000201F
:1010840010B5044601F037FB0146204600F038F85D
:101094000121024800F034F810BD00BFC43000083C
:1010A4002DE9F04385B004460F4643560BB10E4676
:1010B4001EE0042528462146ABBE0446384605B04A
:1010C400BDE8F08314F9011B04AA1A4402F8101CA9
:1010D4000133AB42F6D304AA1344002203F8102CC4
:1010E400E9464FF0040840464946ABBE8046761BAD
:1010F400002EE3D03546102E28BF10250023E8E744
:1011040008B5FFF7CDFF08BD08B500F093F8024B12
:10111400024A9A6008BD00BF00ED00E0000000082C
:10112400F8B504460D4617461E462748FFF790FFBC
:1011340021682648FFF78CFF61682548FFF788FF80
:10114400A1682448FFF784FFE1682348FFF780FF84
:1011540021692248FFF77CFF61692148FFF778FF86
:10116400A1692048FFF774FFE1691F48FFF770FF8A
:101174001E48FFF76DFF29461D48FFF769FF1D4C08
:10118400E16A1D48FFF764FF216B1C48FFF760FF0D
:10119400E16B1B48FFF75CFF15F0800F0AD115F4D3
:1011A400004F0CD11748FFF753FF06991648FFF775
:1011B4004FFFF8BD39461548FFF74AFFEFE73146C0
:1011C4001348FFF745FFEDE72C3000083C300008DA
:1011D4004C3000085C3000086C3000087C3000089B
:1011E4008C3000089C300008AC300008BC3000088B
:1011F400C830000800ED00E0D8300008E8300008EE
:10120400F83000082831000830310008083100089F
:101214001831000883691A888A4201D00020704777
:101224000268033A012A03D802338361012070471C
:10123400002070470C4B1A6842F001021A6000212A
:1012440099601A6822F0847222F480321A60074A84
:101254005A601A6822F480221A60D9604FF0006242
:10126400034B9A60704700BF0038024010300024DE
:1012740000ED00E0224B9B6803F00C03042B14D018
:10128400082B16D01BB11F4A1F4B1A6002E01D4ADF
:101294001D4B1A601A4B9B68C3F303131B4AD15CA2
:1012A400194A1368CB4013607047194A164B1A60E9
:1012B400F0E7134B5A685B6803F03F0312F4800FA6
:1012C40013D0134AB2FBF3F20D4B5B68C3F38813DC
:1012D40003FB02F30A4A5268C2F30142013252008C
:1012E400B3FBF2F3084A1360D4E7064AB2FBF3F205
:1012F400034B5B68C3F3881303FB02F3EAE700BF05
:10130400003802400024F4000C000020743100086E
:1013140000127A0010B4016042600373012303FADF
:1013240002F2826010BC7047037B3BB9036803F58B
:10133400801380339B0282689A617047036803F5C7
:10134400801380339B024168103101228A409A61E4
:101354007047037B53B9036803F5801380339B0202
:101364004168103101228A409A617047036803F58D
:10137400801380339B0282689A61704710B586B0EF
:1013840004460D48026B2168012303FA01F10A4364
:101394000263A268019202930222049203932068DA
:1013A40000F58010803001A98002FFF705F920467E
:1013B400FFF7CFFF06B010BD00380240034B1960A1
:1013C400024B1B68002BFBD1704700BF0C010020AF
:1013D40008B5FFF74DF8044B1B681BB1024A1368AC
:1013E400013B136008BD00BF0C01002030B595B06F
:1013F40000240194214B1A6C42F080521A641B6C35
:1014040003F080530193019B02941D4B1A6842F42C
:1014140080421A601B6803F480430293029B0123F9
:10142400089309934FF480030F93082310934FF408
:10143400A873119302251295072313930E9508A8F8
:10144400FFF738FA0F230393049505944FF4A05340
:1014540006934FF480530793052103A8FFF78AFCF2
:10146400FFF7B0FD074BA3FB00308009FFF770F8CE
:101474000420FFF783F815B030BD00BF00380240E8
:1014840000700040D34D621008B5FEF7D7FFFFF798
:10149400ADFFFFF7EFFE08BDB0B502AF92B0002577
:1014A400119510900E910320052100F04FF90C9036
:1014B4000C9901EBD17040100D9043F28414C0F6E6
:1014C40000042046FFF7C4FD0D992046FFF7C0FD38
:1014D40043F29110C0F60000FFF7D2FD40F20C0079
:1014E400C2F20000016843F2A210C0F60000FFF748
:1014F400AFFD0BA800F015F909950895FFE70898CA
:101504000999D0F103004FF00000884112D3FFE79E
:10151400089840F21011C2F2000101EB0010FFF72D
:101524002DFFFFE708980999013041F10001089067
:101534000991E4E70020079005900490FFE70498E0
:101544000599D0F103004FF00000884112D3FFE762
:10155400049840F21011C2F2000101EB0010FFF7F1
:10156400E3FEFFE704980599013041F1000104907E
:101574000591E4E70BA84FF47A71FFF71FFF0020F1
:1015840003900290FFE702980399D0F103004FF013
:101594000000884112D3FFE7029840F21011C2F212
:1015A400000101EB0010FFF7D4FEFFE70298039956
:1015B400013041F1000102900391E4E70BA8FA2104
:1015C400FFF7FCFE43F2B710C0F60000FFF740FD42
:1015D400002001900090FFE7009801990D9A801A6D
:1015E40071EBE27025D2FFE740F21014C2F200045E
:1015F4002046FFF799FE0BAD284640F2EE21FFF797
:10160400DDFE2046FFF7A5FE2846FA21FFF7D6FEA9
:10161400009A019B43F2BF10C0F60000FFF718FDCB
:10162400FFE700980199013041F100010090019118
:10163400D2E7119812B0B0BD80B56F4682B0009069
:10164400009801384FF0000161F10001B0F18070A1
:1016540071F1000003D3FFE70120019019E0009825
:1016640001384EF21401CEF2000108604FF0FF3051
:101674000F2100F011F84EF21800CEF20000002104
:1016840001604EF21000CEF20000072202600191C8
:10169400FFE7019802B080BD82B0019000910198EB
:1016A400B0F1FF3F0BDCFFE700980001019901F066
:1016B4000F014EF61452CEF20002885408E000984E
:1016C400000101994EF20042CEF200028854FFE775
:1016D40002B07047D0B502AF40F2101403210C22BF
:1016E4000023C2F200042046FFF714FE04F11000A8
:1016F40003210D220023FFF70DFE04F12000032136
:101704000E220023FFF706FE04F1300003210F220E
:101714000023FFF7FFFDD0BD80B56F46FFF7DAFF6A
:1017240080BD80B56F4682B0009040F20C00C2F2DA
:101734000000006844F6D351C1F26201A0FB01012C
:101744008809FFF779FF02B080BD704782B001902D
:10175400009101980099084402B0704703685A0048
:101764004CBF43F0004323F000431844704700BFCC
:101774002DE9F04F83B099B34B1E174605460193EC
:101784009846002606EB080404EBD47464104FEA70
:10179400C40A05EB0A0B5846FFF7E0FF019B81469C
:1017A400A3420AF1080028440ED0FFF7D7FFB94539
:1017B40000F1FF3004D9B4420CD004F1FF38E1E762
:1017C400B84203D2661CDDE7B945F4D8584603B0E5
:1017D400BDE8F08F4FF0000B584603B0BDE8F08F22
:1017E4008B46584603B0BDE8F08F00BF012807D0F0
:1017F400022807D0044B00280CBF1846002070476D
:101804000248704702487047FD1E0008011F000887
:10181400051F000830B5244B83B004468D1E7BB3EE
:10182400284601A9AFF3008020B301992A46FFF7A7
:101834009FFF0546F0B1FFF791FF6B68A064012B91
:1018440012D0002B05F1040020DBFFF787FF0023F3
:10185400E06423650368002B1CDBFFF77FFF002394
:101864002061184603B030BD0023236105231846C8
:1018740003B030BD002323610923184603B030BDF3
:101884000A490B48091AC9100191CFE70123E06402
:101894002365DFE7C3F30360FFF7A8FF0028206197
:1018A4000CBF09230023DCE700000000E832000835
:1018B400183200080368DA0710B5044606D49B07FB
:1018C40000F1480009D500F085FC2368590709D5C3
:1018D4001A070ED5DB0613D510BD00F073FC236880
:1018E4005907F5D404F1D00000F07CFC23681A07F2
:1018F400F0D404F5A87000F07DFC2368DB06EBD47B
:1019040004F5E870BDE8104000F0B8BC03680BB102
:10191400184470471846704709207047704700BF45
:1019240070B504460D4608E02B6C63610120236901
:1019340021462A469847082808D12046296CFFF7F3
:1019440069FF06460028EFD0FFF744FB0728FBD1C8
:101954003046296CFFF7E2FF281D00F027FC00BF8A
:101964002DE9F0470C1D064617460FCCADF5727DE8
:1019740003AD0FC50FCC0FC50FCC0FC594E80F00F6
:1019840002AC4FF0000ED6F80C80D6F8189085E81B
:101994000F003046216CC4F800E0FFF73BFF002F36
:1019A40005460CBF09270A277DB1A36B47F0100138
:1019B4008DE810020120636432463346C04778BB89
:1019C40028460DF5727DBDE8F087236C73612146CE
:1019D4004FF4F0727AA800F083FE336931467AAA94
:1019E40038469847889B82468DE8100239466364DE
:1019F400012032463346C04790B920467AA94FF4B5
:101A0400F07200F06DFEBAF1080F06D13046216C79
:101A1400FFF700FF09270546C6E7BAF1070F04D010
:101A240009200DF5727DBDE8F0872846216CFFF78B
:101A340075FF03A800F0BAFB406C7047F0B5CB6BA0
:101A44000B640E1D0F4604460FCEF9B001AD0FC551
:101A54000FCE0FC50FCE0FC596E80F004FF0FF361F
:101A640085E80F00009606E0236921466A469847F8
:101A74000828054608D120461099FFF7CBFE002818
:101A8400F2D0092079B0F0BD6846FFF713FF062DA8
:101A9400F7D120463946FFF743FF00BF30B4DD6B72
:101AA400C160826119461D64002230BC58E700BF42
:101AB40070B5C66843690B6404460D4626B101221D
:101AC400FFF74EFFFFF786FA0369214602202A46F4
:101AD4009847072807D0082803D120462946FFF74E
:101AE4001FFFFFF777FA3046296CFFF717FF281D11
:101AF40000F05CFBC2681AB1CA6B0A6400222FE7CB
:101B04009CE700BF704700BF836813B10146012002
:101B14001847704700B5042907D8DFE801F0030926
:101B2400060909000BB90F2A05D902205DF804FB48
:101B340001205DF804FB00EB820218465368019A09
:101B440013605DF804FB00BF00B585B00A4603AB23
:101B5400002100930B46FFF7DDFF039805B05DF805
:101B640004FB00BF00B5042907D8DFE801F003092E
:101B7400060909000BB90F2A05D902205DF804FBF8
:101B840001205DF804FB019900EB820209685160B1
:101B940018465DF804FB00BF10B584B004AB0C46D6
:101BA40043F8042D0021009322460B46FFF7DAFF89
:101BB40004B010BDF0B5D36B1364151D07460E4673
:101BC4000FCDADF50F7D17AC0FC40FCD0FC40FCDE6
:101BD4000FC495E80F004FF0FF3584E80F00169509
:101BE40010E016A8FFF7D8FF314616A8B847694693
:101BF40016AA78B9049B08209847052804460AD0F9
:101C0400092807D026996846FFF704FE6A460C2186
:101C14000028E6D0092416A8FFF74CFE20460DF54F
:101C24000F7DF0BD2DE9F04F0D46C96C8BB00C1D36
:101C3400096807919046089400F003091E46002B9A
:101C440064D10902032307918DF825608DF82430AF
:101C54002B6DB9F1020F08BFAC6B13F0010343D134
:101C640000F00800C2B2039201932768002F3DD010
:101C7400022E47D02788B4F802A00434AB6C2AF0B3
:101C8400010B40460F219B44FFF75EFF834537D885
:101C940027F001039B4458452CBF002001200AF083
:101CA400010A07F0010747EA4A0ABAF1010F43D0D3
:101CB4003AD3BAF1020F1FD1236823F000420292F3
:101CC400B9F1000F7BD138B1039A002A00F0838068
:101CD400029A002A00F0A680002B7ADB029B03F113
:101CE400010A04EB8A04C0E700230193022E40DDBD
:101CF400FFF712FE002842D009200BB0BDE8F08F98
:101D04000020CCE7D4F804A00834B7E7022B9FDC0A
:101D14000B0CDFB2090402228DF8253004EB870492
:101D240007918DF8242093E7B9F1000F02D0002821
:101D340040F0AD80043498E7B9F1000F26D1B0B17A
:101D440094E80C00D70F9A1CD6D005F15802013341
:101D5400069200F09280201DFFF7D8FD3A46014616
:101D640006AB2846AFF30080002840F0B580083465
:101D74007BE7404607A900F01BFB0028BCD1019B70
:101D8400002B59D108200BB0BDE8F08F40460D213F
:101D94002F6AFFF7D9FE8742E9D1AB6A9C42E6D1AC
:101DA4002046FFF7DBFC0F2102464046FFF7F4FE16
:101DB40040462A460021FFF7EFFE07209DE74046F4
:101DC4000D212F6AFFF7C0FE874245D02368002B00
:101DD40084DA043482E7029B23B305F158030596A1
:101DE40004F1040A039FDDF808B0CDF810901E46F4
:101DF40002E0D9454F4615D050460696FFF786FDBA
:101E04000022014606AB2846AFF3008007F1010922
:101E14000AF1040A0028ECD0029BDDF81090059E1C
:101E24009F42D3D140460D21FFF78EFE069B2862C8
:101E3400AC626B62062060E70F214046FFF784FE28
:101E44000E2102464046FFF7A7FE40460F21294ACD
:101E5400FFF7A2FE072050E7AB6A9C42B6D10422EA
:101E64000027A3180299A962EF622A636B632368AF
:101E7400BB421FDB0123019330E740460D21FFF7EE
:101E840063FE2862069B6B62AC62062035E720463F
:101E9400FFF764FC04340646AC632846AFF30080C5
:101EA40000283FF429AF404632460F21FFF774FE65
:101EB400072022E70846013004EB8000FFF74EFCC0
:101EC4000F2102464046FFF767FE404639462A4640
:101ED400FFF762FE072010E707460D214046FFF793
:101EE40033FE022F2862CDD12B46069A43F82C2FBD
:101EF4006B62C9E700000000002393E6012391E62A
:101F040002238FE6F0B50546C5B004290CD8DFE8F6
:101F140001F056030B300E00012B4FEA124496B227
:101F240065D0052B00F08480022045B0F0BD002B65
:101F3400FAD1102AF8D82B68DC0600F1EB8022AE27
:101F44003046019200F0A4F9A86B019A0023012401
:101F540004FA03F1114203D0016846F82310043057
:101F64000133042BF4D1A863304600F087F9002034
:101F7400DBE7032BD8D1140C97B23B19102BD3D821
:101F84002B681E0700F1E68022AE30467F0000F089
:101F940053F906EBC4027B1EAC6B57B1043A2146DD
:101FA40051F8040B42F8040F013B581CF8D104EB20
:101FB40087043046AC6300F01DF90020B5E7002B20
:101FC400B2D1AC6B97B2281D012606FA03F139424F
:101FD40003F1010302D0216801600434102B00F1E5
:101FE4000400F2D112F4005020D1AC639DE7321901
:101FF400102A99D80F2C97D82968C8074FF00007E2
:1020040055D422A8019300F0E1F8019B19E0084699
:102014003746012B00F098800F2CA86302D822A821
:1020240000F0D8F817B102A800F0DCF800207CE733
:102034003719202F3FF678AF0F2C30D93746002EB2
:1020440045D1A96B3246002EE1D0002744A84FEABF
:10205400420C00EBC4000CF1FF328C388E465EF863
:10206400046B40F8046F013A561CF8D101EB8C0064
:10207400002FCED0102C224644A938BF102201EBE9
:10208400C202A2F5C47201467800043A01EB800052
:1020940051F8046B42F8046F8142F9D1B9E7102F6B
:1020A40042D92A68D007A7F11007114610D521F0AC
:1020B4000102052B2A60019328465BD021F003011D
:1020C40040F8481B00F082F8019B002F4AD02A6890
:1020D40051075BD4012B63D00F2C04D822A80193A1
:1020E40000F07CF8019B002FABD002A8019300F014
:1020F4007DF8019BA96BC4F11002002AA6DC102C08
:10210400224644A838BF102200EBC202A2F5C472D2
:102114007800BAE723F010032B6005F5E87001920C
:1021240000F0B6F8019A0AE72968C8071DD521F01E
:102134000102284642F0020240F8482B019300278E
:1021440000F04CF8019BC9E70430A86322A800F012
:1021540039F86BE723F008032B6005F5A87000F04D
:102164006BF811E7012B3FF44CAF0F2C98BF0027FD
:10217400B4D966E742F0020240F8482B00F02EF88A
:10218400019B002FAAD02A685107A5D5284622F022
:10219400040240F8D02B019300F028F8019B99E742
:1021A40022A8019300F012F8019BA3E700F1340187
:1021B40091E838009C46A6464CF8045D90E8FF0F71
:1021C400E54600BD90EC210B704700BF80EC210B6D
:1021D400704700BF90EC200B704700BF80EC200BD1
:1021E400704700BFD0EC200B704700BFC0EC200B41
:1021F400704700BFF0EC0201F0EC0211F0EC022198
:10220400F0EC0231F0EC0241F0EC0251F0EC02612E
:10221400F0EC0271F0EC0281F0EC0291F0EC02A11E
:10222400F0EC02B1F0EC02C1F0EC02D1F0EC02E10E
:10223400F0EC02F1704700BFE0EC0201E0EC0211A7
:10224400E0EC0221E0EC0231E0EC0241E0EC02516E
:10225400E0EC0261E0EC0271E0EC0281E0EC02915E
:10226400E0EC02A1E0EC02B1E0EC02C1E0EC02D14E
:10227400E0EC02E1E0EC02F1704700BFB0FC018148
:10228400B0FC0191B0FC01A1B0FC01B1704700BFEA
:10229400A0FC0181A0FC0191A0FC01A1A0FC01B162
:1022A400704700BFEC4600B52DE900502DE9FF1F33
:1022B4004FF000032DE90C0001A9FFF7BFFBDDF887
:1022C40040E012B0704700BFEC4600B52DE9005065
:1022D4002DE9FF1F4FF000032DE90C0001A9FFF7C2
:1022E400E7FBDDF840E012B0704700BFEC4600B5F4
:1022F4002DE900502DE9FF1F4FF000032DE90C00DC
:1023040001A9FFF7F7FBDDF840E012B0704700BF0A
:10231400EC4600B52DE900502DE9FF1F4FF00003F6
:102324002DE90C0001ABFFF7B9FBDDF840E012B07A
:10233400704700BFEC4600B52DE900502DE9FF1FA2
:102344004FF000032DE90C0001AAFFF733FCDDF880
:1023540040E012B0704700BF037A1BB9437A43B917
:10236400B02070475A1E036802721A020260180EE7
:1023740070474268013B10B4437213680321141D73
:1023840001721A02446002605DF8044B180E704733
:1023940000B585B003AB002100930C220B46FFF778
:1023A400B9FB039805B05DF804FB00BFF0E700BF7C
:1023B4002DE9F043064685B00D464FF00008284647
:1023C400FFF7CAFFB028044600F0B58020F07F0173
:1023D40011F0FF0120D000F0F003802B7AD0902B75
:1023E40036D0A02B49D0B02B5CD0C02B00F0898014
:1023F40000F0F803D02B0BD100F00702013242F4B5
:102404000022304601210523FFF77CFD0028D6D0A9
:10241400092005B0BDE8F0830DF10C090B468700D7
:10242400CDF8009030460D22FFF774FBFFB2039BFA
:10243400CDF80090043760064FF000014CBFDF1B5D
:10244400FF1830460B460D220397FFF78BFBB6E7C8
:1024540000F00D030D2BDBD003AF002100F00F02C1
:102464000B4600973046FFF755FB002100970B46BB
:1024740030460D22FFF776FBA1E7C34303F00703C1
:102484004FF47F621A41010702F47F624FF00001AA
:1024940048BF42F480420B463046FFF733FD002824
:1024A400B6D18CE7B1284CD0B2285DD0B32800F067
:1024B4008A8000F0FC03B42BAAD000F0070201329A
:1024C400012142F400220B463046FFF71BFD002891
:1024D4009ED174E72846FFF73FFF24022043B0F55E
:1024E400004F95D004010021A2B20B463046FFF7FD
:1024F40009FD00288CD114F4004F18BF4FF00108D7
:102504005DE7C62872D0C7287AD000F0F803C02B44
:1025140000F08980C82800F0A580C9287FF478AF2E
:102524002846FFF719FF00F00F02013200F0F00017
:1025340042EA003265E7B8F1000F00F08280002023
:1025440067E72846FFF708FF024600283FF460AF1C
:1025540010F0F0017FF45CAF30460B46FFF7D2FC7D
:1025640000287FF455AF2AE700210DF10C090D2254
:102574000B46CDF800903046FFF7CCFA2846FFF71B
:10258400EBFE02064FF002040CD5039B00F07F0023
:10259400A040034428460393FFF7DEFE030604F13C
:1025A4000704F2D4039BCDF8009000F07F00A04014
:1025B40003F5017300211C180D220B4630460394C9
:1025C400FFF7D0FAFBE62846FFF7C6FE00F00F023D
:1025D400013200F0F000012142EA00320B4630469D
:1025E400FFF790FC00287FF413AFE8E62846FFF7D6
:1025F400B3FE00F00F02013200F0F0000321EBE71C
:102604002846FFF7A9FE024600283FF401AF10F068
:10261400F0037FF4FDAE30460421FFF773FC00287D
:102624007FF4F6AECBE600F00F020132032142F450
:1026340020220B463046FFF765FC00287FF4E8AE05
:10264400BDE603AC41460E22434600943046FFF7F4
:1026540061FA0094304641460F224346FFF782FA5E
:102664004046D6E62846FFF777FE00F0F00200F079
:102674000F031032013343EA0232C2E610B5C36CD1
:1026840084B05A6803208DF80C00DC798DF80D4075
:1026940012020833084601A901920293FFF788FE4B
:1026A40004B010BD08B5FFF781FE806C08BD00BF03
:1026B40008B5FFF77BFEC36CD87903EB80000830C4
:1026C40008BD00BF08B5FEF785FC00BF08B5FEF7DE
:1026D40081FC00BF014B1868704700BF70000020E8
:1026E40010B5431E0A44914204D011F8014B03F87B
:1026F400014FF8E710BD034613F8012B002AFBD164
:10270400181A0138704730B5141E9BB0054604DA18
:102714008B2303604FF0FF301CE04FF40272ADF8DE
:102724000C2014BF04F1FF322246029205924FF6A8
:10273400FF7200910491ADF80E2069461A461E9B63
:1027440000F074F8431CBCBF8B232B6014B1009BB6
:1027540000221A701BB030BD73B50093054B0646BA
:102764000D461446186831462A462346FFF7CBFF28
:1027740002B070BD700000202DE9F0478E68B342AE
:1027840082460C469046994640D38A8912F4906F4B
:102794003AD0256809696F1A6569022305EB450576
:1027A40095FBF3F57B1C4B449D4238BF1D465305F6
:1027B4000FD5294600F030FB064698B121693A4608
:1027C400FFF78EFFA38923F4906343F08003A38172
:1027D40013E02A4600F076FB064670B9504621699C
:1027E40000F0D6FA0C23CAF80030A38943F0400362
:1027F400A3814FF0FF30BDE8F087266165613E4458
:10280400ED1B2660A5604E46B14500D24E463246C9
:102814002068414600F0A1FAA3689B1BA3602368CB
:102824001E4426600020BDE8F08700002DE9F04337
:102834009DB0064603938B891C060D4690460CD525
:102844000B6953B9402100F0E7FA2860286110B9F8
:102854000C233360CCE040236B61002309932023D5
:102864008DF8293030238DF82A3043461C4613F85E
:10287400012B1AB9B4EB08090FD002E0252AF5D1CF
:10288400F8E73046294642464B46FFF775FF0130CC
:1028940000F0A980099B4B4409932378002B00F096
:1028A400A28000234FF0FF3204930793059206930E
:1028B4008DF853301A9304F101084446DFF8489127
:1028C40021784846052200F039FA08F10108049BF2
:1028D40030B1C9EB00000122824013430493ECE7BA
:1028E400D80644BF20228DF85320190744BF2B2259
:1028F4008DF8532022782A2A02D0079923460EE025
:10290400039A111D12680391002ABBBF524243F07F
:10291400020307920792B8BF049301340AE01C46ED
:1029240001332278303A092A03D80A2000FB012116
:10293400F5E7079123782E2B1AD163782A2B0AD135
:10294400039B1A1D1B680392002BB8BF4FF0FF3383
:10295400023405930CE0611C00220C4601312378FB
:10296400303B092B03D80A2000FB0232F5E705921D
:10297400DFF8988021784046032200F0DFF938B16F
:10298400049AC8EB000040238340134304930134AA
:1029940021781A488DF82810062204F1010800F065
:1029A400CDF988B1164B33B9039B073323F00703E2
:1029B4000833039313E003AB0093304604A92A467B
:1029C400104BAFF3008007E003AB0093304604A93B
:1029D4002A460C4B00F092F8421C074603D0099B90
:1029E4003B44099341E7AB895B0601D4099801E0B4
:1029F4004FF0FF301DB0BDE8F08300BFD6310008B2
:102A0400000000007D270008CC310008D231000806
:102A14002DE9F84391461F468A680B69DDF820804A
:102A24009342B8BF1346C9F8003091F843200646D4
:102A34000C4612B10133C9F800302368990642BF2D
:102A4400D9F800300233C9F80030256815F00605BE
:102A54001CD094F843302268003318BF0123920637
:102A64001FD5E1185A1C302081F84300224494F801
:102A7400451082F84310023313E03046394604F11E
:102A840019020123C047013007D00135E368D9F8A2
:102A940000209B1A9D42F0DBDBE74FF0FF30BDE8DE
:102AA400F8833046394604F14302C0470130F4D07C
:102AB4002268D9F80050E36802F00602042A08BF2D
:102AC4005D1B2269A3680CBF25EAE57500259342C6
:102AD400C4BF9B1AED184FF00009A9450ADA304625
:102AE400394604F11A020123C0470130D5D009F157
:102AF4000109F2E70020BDE8F88300002DE9FF4159
:102B04000C461746227E6E2A984606460A9B01F119
:102B1400430100F0AF8012D8632A23D00AD8002AD8
:102B240000F0BC80582A40F0CB8084F84520DFF8C0
:102B340004E257E0642A1ED0692A1CD0C0E0732A3C
:102B440000F0B08009D86F2A2ED0702A40F0B880E7
:102B5400226842F0200222603FE0752A24D0782ABD
:102B64003BD0ADE01A68111D1960136884F8423037
:102B740004F14205A8E020681A6810F0800F02D022
:102B8400101D186008E010F0400F02F104001860F6
:102B940002D0B2F9003000E01368002B3EDA2D2297
:102BA4005B4284F8432039E020681A6810F0800FF3
:102BB40002D0101D186007E010F0400F02F104006D
:102BC400186001D0138800E01368227EDFF864E106
:102BD4006F2A0CBF08220A221CE07822DFF858E191
:102BE40084F845202268186812F0800F00F104056B
:102BF4001D6003D1550601D5038800E00368D007A2
:102C040044BF42F0200222601BB9226822F0200255
:102C140022601022002084F8430002E0DFF814E16F
:102C24000A226568A560002DA2BF206820F0040078
:102C3400206003B965B10D46B3FBF2F002FB10331B
:102C44001EF8033005F8013D03460028F4D100E0E6
:102C54000D46082A0BD12368DA0708D52369626870
:102C64009A42DEBF302305F8013C05F1FF35491BCC
:102C740021612EE025681A68606915F0800F03D081
:102C8400151D1D60136808E015F0400F02F10405DE
:102C94001D60136801D0188000E0186000232361D0
:102CA4000D4616E01A68111D1960156862682846F9
:102CB400002100F043F808B1401B6060636804E041
:102CC40004F1420584F8422001232361002384F89F
:102CD4004330CDF800803046214603AA3B46FFF737
:102CE40097FE013002D14FF0FF301FE030463946E5
:102CF4002A462369C0470130F5D023689B0705D4D1
:102D0400E068039B9842B8BF18460FE00025E368CB
:102D1400039A9B1A9D42F3DA3046394604F11902AC
:102D24000123C0470130DED00135F0E704B0BDE82F
:102D3400F08100BFDD310008EE31000810B5C9B2E2
:102D440002449042034606D01C788C4200F10100F4
:102D5400F7D1184610BD002010BD814210B501EB1B
:102D6400020301D3421E0BE09842FBD28118D21A0F
:102D7400D34204D013F8014D01F8014DF8E710BD1A
:102D8400994204D011F8014B02F8014FF8E710BD45
:102D940030B500293DD051F8042C0B1F1D49002AE1
:102DA400B8BF9B180A680C4612B95A600B6030BD54
:102DB40093420DD219685818904201BF5A585218BC
:102DC4001A6042685A60236030BD994203D80A46AB
:102DD40051680029F9D1146815199D420AD11B685C
:102DE4002344D0188842136013D108680344136045
:102DF4004B680DE002D90C23036030BD1C68181920
:102E0400884204BF08684968596004BF0019186003
:102E1400536030BD5401002070B5CC1C24F0030471
:102E240008340C2C38BF0C24002C064603DA0C237F
:102E34003360002070BD8C42F9D3204A13681046D9
:102E44001946A1B10A68121B0ED40B2A03D90A60D1
:102E54008B188C501FE08B420DBF5A684A685A6029
:102E6400026018BF0B4616E00B464968E9E7144DAB
:102E74002B681BB9304600F04BF8286030462146D9
:102E840000F046F8421C0346D1D0C51C25F00305CA
:102E940085420AD11C6003F10B001A1D20F00700C3
:102EA400821A0AD05142995070BD3046E91A00F096
:102EB4002FF80130BBD02B46ECE770BD5401002045
:102EC40050010020F8B5074615460E4621B91146B3
:102ED400BDE8F840FFF7A0BF1AB9FFF759FF28462D
:102EE400F8BD00F025F8A8420ED238462946FFF76F
:102EF40093FF044650B131462A46FFF7F1FB3846AA
:102F04003146FFF745FF01E03046F8BD2046F8BDE5
:102F140038B5064C0023054608462360FEF764F8DE
:102F2400431C02D1236803B12B6038BD5C0100202F
:102F340051F8040C0028BEBF091851F8043CC0180D
:102F4400043870472E2E2F73797374656D2F737246
:102F5400632F73746D333266342D68616C2F737410
:102F64006D3332663478785F68616C5F636F727456
:102F740065782E63000000002E2E2F73797374651C
:102F84006D2F7372632F73746D333266342D6861E1
:102F94006C2F73746D3332663478785F68616C5F5C
:102FA4006770696F2E6300000000000001020304D3
:102FB40001020304060708092E2E2F737973746522
:102FC4006D2F7372632F73746D333266342D6861A1
:102FD4006C2F73746D3332663478785F68616C5F1C
:102FE4007263632E6300000061626F727428292C7F
:102FF4002065786974696E672E2E2E00617373657F
:1030040072745F706172616D2829206661696C65F4
:10301400643A2066696C6520222573222C206C6931
:103024006E652025640A0000537461636B20667228
:10303400616D653A0A000000205230203D202025B1
:103044003038580A00000000205231203D2020254D
:103054003038580A00000000205232203D2020253C
:103064003038580A00000000205233203D2020252B
:103074003038580A0000000020523132203D20250B
:103084003038580A00000000204C52203D202025F2
:103094003038580A00000000205043203D202025ED
:1030A4003038580A0000000020505352203D20259B
:1030B4003038580A000000004653522F4641523A15
:1030C4000A0000002043465352203D20202530387A
:1030D400580A00002048465352203D20202530380D
:1030E400580A00002044465352203D202025303801
:1030F400580A00002041465352203D2020253038F4
:10310400580A0000204D4D464152203D20253038BC
:10311400580A00002042464152203D2020253038E4
:10312400580A00004D6973630A000000204C522FB6
:103134004558435F52455455524E3D20253038582A
:103144000A0000005B486172644661756C745D0A34
:10315400000000005B4275734661756C745D0A0083
:103164005B55736167654661756C745D0A000000A8
:103174000000000000000000010203040607080923
:1031840076657273696F6E3A2025640A0048656C2F
:103194006C6F2041524D20576F726C64210053793B
:1031A4007374656D20636C6F636B3A2025752048DA
:1031B4007A0A005265616479210A006E756D626550
:1031C400722025750A004300232D302B2000686CE3
:1031D4004C00656667454647003031323334353636
:1031E400373839414243444546003031323334356F
:0B31F40036373839616263646566009D
:1032000008B10181B0B000840000000008B1018164
:08321000B0B0008400000000D2
:1032180084E2FF7FB0B0B0802EE5FF7F01000000A0
:1032280028E5FF7FB0B0B08030E5FF7F01000000E7
:10323800E0E5FF7FB0A9028078E6FF7FB0B0A88004
:10324800C8E6FF7F01000000D4E6FF7FB0B0AA8087
:103258000CE7FF7FAE71B280DCE7FF7F0100000062
:10326800D8E7FF7FAB3F388030E8FF7F01000000E0
:103278003CE8FF7FB0B0AA8078E8FF7F010000003B
:1032880030E9FF7FAB0EB28098E9FF7FB0AF0A80CC
:1032980064ECFF7F0100000068ECFF7FAB3F048017
:1032A80008EFFF7F01000000E4F0FF7F0084048046
:1032B800F8F0FF7F01000000F4F0FF7FB0AD04805C
:1032C800B8F3FF7FB0A80380D8F3FF7F2CFFFF7F00
:1032D800DCF3FF7F30FFFF7FE8F3FF7F0100000092
:1032E8007856341288000020000000000024F40002
:1032F80000000000000000000000000000000000C6
:1033080000000000000000000000000000000000B5
:10331800CA310008000000000000000000000000A2
:103328000000000000000000000000000000000095
:103338000000000000000000000000000000000085
:103348000000000000000000000000000000000075
:083358001000002032547698A9
:040000050800018965
:00000001FF
