:020000040800F2
:1000000000000220B9020008BF020008C302000875
:1000100035030008390300088103000800000000D0
:10002000000000000000000000000000C9030008FC
:10003000CD03000800000000D103000839140008B7
:10004000E5030008E5030008E5030008E5030008F0
:10005000E5030008E5030008E5030008E5030008E0
:10006000E5030008E5030008E5030008E5030008D0
:10007000E5030008E5030008E5030008E5030008C0
:10008000E5030008E5030008E5030008E5030008B0
:10009000E5030008E5030008E5030008E5030008A0
:1000A000E5030008E5030008E5030008E503000890
:1000B000E5030008E5030008E5030008E503000880
:1000C000E5030008E5030008E5030008E503000870
:1000D000E5030008E5030008E5030008E503000860
:1000E000E5030008E5030008E5030008E503000850
:1000F000E5030008E5030008E5030008E503000840
:10010000E5030008E5030008E5030008E50300082F
:10011000E5030008E5030008E5030008E50300081F
:10012000E5030008E5030008E5030008E50300080F
:10013000E5030008E5030008E5030008E5030008FF
:10014000E5030008E5030008E5030008E5030008EF
:10015000E5030008E5030008E5030008E5030008DF
:10016000E5030008E5030008E5030008E5030008CF
:10017000E5030008E5030008E503000800000000AF
:10018000E5030008E503000800B583B000F0C4FFF4
:10019000384B394A1360394A1360394906E011680F
:1001A0001960043304329842F9D82146354B9942FC
:1001B00005D20A684B6801F10C048868F3E72E4BFE
:1001C0001A68314B9A4200D0FEE72C4B1A682F4B2D
:1001D0009A42F9D1274B2E4A13602E4A13602E4BB8
:1001E00005E00020106004329342FAD80B462B4AF7
:1001F000934204D2194651F8082B5B68F4E7244B6C
:100200001B6813B9234B1B6803B1FEE701F070F9BB
:10021000694601A800F012FF214B224CE41AA410F9
:100220000025AC4214DC204B204CE41AA41000251D
:10023000AC4213DC0099019801F08AF905461C4B89
:100240001C4CE41AA410002C0EDC284600F0C8FE5A
:10025000134B53F8253098470135E2E7124B53F81A
:10026000253098470135E3E7013C114B53F8243022
:100270009847E8E7BABADECA000000207400002000
:10028000E8030008000400087856341232547698C7
:100290007800002058010020000400081004000825
:1002A00010040008100400081004000814040008DA
:1002B000140400081404000808B5FFF765FF00BE29
:1002C000FEE71EF0040F0CBFEFF30880EFF3098088
:1002D0007146414A10472DE9F04182B004468846F4
:1002E000124B5E6B9F6B9D6A1B6B13F0020F03D06A
:1002F0000E4BDB6A002B0CDB0D4800F0B1FECDF895
:1003000000803B4632462946204600F011FF00BEE1
:10031000FEE74BF6AB6100F085FF0028ECD04FF014
:100320000042024BDA6202B0BDE8F08100ED00E06D
:10033000C030000800BEFEE71EF0040F0CBFEFF354
:100340000880EFF309807146244A10472DE9F041F7
:1003500082B004468846084B5E6B9F6B9D6A0748D7
:1003600000F07EFECDF800803B463246294620460E
:1003700000F0DEFE00BEFEE700ED00E0D030000839
:100380001EF0040F0CBFEFF30880EFF309807146F5
:10039000134A10472DE9F04182B004468846084BC5
:1003A0005E6B9F6B9D6A074800F05AFECDF8008097
:1003B0003B4632462946204600F0BAFE00BEFEE724
:1003C00000ED00E0DC30000800BEFEE700BEFEE706
:1003D00000BEFEE770470000D70200084D0300088A
:0803E0009503000800BEFEE7D2
:1003E8004C32000800000020780000204C32000841
:1003F8000000001000000010780000205C010020C0
:0C04080000000010000000108516000825
:1004200010B50446074B1868074BA3FB0030800942
:1004300000F096F8002221464FF0FF3000F04CF813
:10044000002010BD0C000020D34D621008B50B4BEE
:100450001A6842F400721A601A6842F480621A60E4
:100460001A6842F480721A60032000F017F80F2017
:10047000FFF7D6FF01F00DF9002008BD003C024057
:10048000024A136801331360704700BF5001002017
:10049000014B1868704700BF5001002010B504469A
:1004A000C31E042B0FD80A4AD36823F4E0631B044D
:1004B0001B0C240204F4E064234343F0BF6343F4C1
:1004C0000033D36010BDA421024800F0BFFDEAE76D
:1004D00000ED00E0C02E000870B505460C4616463B
:1004E0000F2A24D80F2C27D81A4BDB68C3F302231A
:1004F000C3F10702042A28BF0422191D062920D9A6
:10050000033B012101FA02F2013A14409C4001FA36
:1005100003F3013B33401C43002D14DB2401E4B200
:1005200005F1604505F5614585F8004370BDBC21C6
:10053000094800F08BFDD5E7BD21074800F086FD96
:10054000D2E70023DDE705F00F052401E4B2034BF9
:100550005C5570BD00ED00E0C02E000814ED00E019
:100560000138B0F1807F0AD2064B5860F021064A6C
:1005700082F823100020986007221A60704701203B
:10058000704700BF10E000E000ED00E010B5044649
:10059000042800D038B9042C0BD0094A136823F082
:1005A0000403136010BD40F2B311064800F04EFD85
:1005B000F1E7034A136843F00403136010BD00BF62
:1005C00010E000E0C02E00082DE9F04782B0804620
:1005D0000F46B54B984223D003F5806398421FD055
:1005E00003F5806398421BD003F58063984217D0CF
:1005F00003F58063984213D003F5806398420FD0CF
:1006000003F5806398420BD003F58063984207D0CE
:1006100003F58063984203D0C521A44800F016FD7D
:100620003B8853B37B68012B22D9112B20D0022B9E
:100630001ED0122B1CD09E4A934219D002F5801274
:10064000934215D002F58012934211D0A2F5F81210
:1006500093420DD002F58012934209D002F5801228
:10066000934205D0032B03D0C721904800F0EEFC45
:10067000BB68022B06D800257AE0C6218B4800F023
:10068000E5FCCFE7C821894800F0E0FCF3E73B69CF
:10069000FBB1092B1DD0012B1BD0022B19D0032B32
:1006A00017D0042B15D0052B13D0062B11D0072BF8
:1006B0000FD0082B0DD00A2B0BD00B2B09D00C2BF5
:1006C00007D00D2B05D00F2B03D0D921774800F090
:1006D000BDFCE908083158F8213005F00702920006
:1006E0000F20904023EA0003386900FA02F2134316
:1006F00048F821304CE0EC216C4800F0A7FC63E0A6
:10070000082100E00021A1400A430233694941F871
:100710002320694B1A686FEA090302EA030178682B
:1007200010F4803F01D049EA0201634A1160526827
:1007300003EA0201786810F4003F01D049EA02019F
:100740005D4A5160926803EA0201786810F4801FE4
:1007500001D049EA0201584A9160D2681340796891
:1007600011F4001F01D049EA0203534AD360013556
:100770000F2D00F296800124AC403B6804EA030987
:100780004C45F4D17B68022B81D0122B3FF47FAF14
:10079000D8F800304FEA450A032606FA0AF6F6436F
:1007A00033407A6802F0030202FA0AF21343C8F8EF
:1007B00000307B685A1E012A03D9112B01D0122B5D
:1007C00016D1FB68032B96D8D8F808303340FA6866
:1007D00002FA0AF21343C8F80830D8F8043023EAC2
:1007E00004047B68C3F30013AB401C43C8F8044007
:1007F000D8F80C301E40BB6803FA0AF31E43C8F851
:100800000C607B6813F0805FB1D0002301932B4B09
:100810005A6C42F480425A645B6C03F48043019347
:10082000019BAB08991C234A52F8212005F00301D3
:100830008C000F21A14022EA01021B4880453FF4B1
:1008400061AF1F4988451ED001F5806188451CD0E5
:1008500001F5806188451AD001F58061884518D07E
:1008600001F58061884516D001F58061884514D076
:1008700001F58061884512D001F5806188453FF41B
:100880003FAF09213FE701213DE702213BE703217B
:1008900039E7042137E7052135E7062133E707214A
:1008A00031E702B0BDE8F08700000240F42E0008F6
:1008B0000000111000380140003C014000380240A7
:1008C0000004024030B583B0044603680F2B2DD8D6
:1008D000236813F0010F3CD06368012B05D9052B69
:1008E00003D0FA219F4800F0B1FB9F4B9B6803F0B7
:1008F0000C03042B24D09C4B9B6803F00C03082BA7
:1009000019D02279994B1A706368002B50D0FFF7E9
:10091000BFFD0546944B1B6813F4003F19D1FFF748
:10092000B7FD401B6428F5D90320D7E1F5218D4898
:1009300000F08CFBCCE78C4B5B6813F4800FE0D0AD
:10094000894B1B6813F4003F03D06368002B00F051
:10095000C281236813F0020F5CD0E368012B04D935
:100960004FF496717F4800F071FB23691F2B2ED83E
:100970007D4B9B6813F00C0F34D07B4B9B6803F0CE
:100980000C03082B29D0E368002B72D00122784B8E
:100990001A60FFF77DFD0546734B1B6813F0020FCD
:1009A00058D1FFF775FD401B0228F5D9032095E1CA
:1009B000FFF76EFD05466C4B1B6813F4003FC8D073
:1009C000FFF766FD401B6428F5D9032086E140F25D
:1009D0002D11644800F03AFBCAE7634B5B6813F4DF
:1009E000800FD0D1604B1B6813F0020F04D0E36876
:1009F000012B01D0012071E15B48036823F0F8036B
:100A00002169F82292FAA2F2B2FA82F201FA02F213
:100A100013430360236813F0080F4ED06369012B62
:100A200004D940F26D114F4800F010FB636993B395
:100A30000122504B1A60FFF72BFD05464A4B5B6FB6
:100A400013F0020F39D1FFF723FD401B0228F5D91F
:100A5000032043E14448036823F0F8032169F822A6
:100A600092FAA2F2B2FA82F201FA02F2134303609E
:100A7000D0E700223E4B1A60FFF70AFD05463A4BCD
:100A80001B6813F0020FC5D0FFF702FD401B0228C0
:100A9000F5D9032022E10022364B1A60FFF7F8FC5B
:100AA0000546314B5B6F13F0020F06D0FFF7F0FCE9
:100AB000401B0228F5D9032010E1236813F0040F2E
:100AC0005ED0A368012B06D9052B04D040F2971104
:100AD000244800F0BBFA00230193234B1A6C42F028
:100AE00080521A641B6C03F080530193019B224ACD
:100AF000136843F480731360FFF7CAFC05461E4B6E
:100B00001B6813F4807F06D1FFF7C2FC401B02284C
:100B1000F5D90320E2E0227A184B1A70A36883B15A
:100B2000FFF7B6FC0546104B1B6F13F0020F27D1E1
:100B3000FFF7AEFC401B41F288339842F3D9032003
:100B4000CCE0FFF7A5FC0546074B1B6F13F0020F27
:100B500016D0FFF79DFC401B41F288339842F3D931
:100B60000320BBE0342F0008003802400238024066
:100B700000004742800E474200700040703802403B
:100B8000A369022B1FD8A369002B00F0A680554A49
:100B9000926802F00C02082A00F0A280022B18D002
:100BA0000022514B1A60FFF773FC04464D4B1B6843
:100BB00013F0007F00F08D80FFF76AFC001B022815
:100BC000F4D903208AE04FF4E671484800F03EFA79
:100BD000D9E7E3693BB1B3F5800F04D040F2D511FA
:100BE000424800F033FA236A3F2B28D8636A323B2D
:100BF000B3F5BF7F29D8A36A022B0AD0042B08D0F3
:100C0000062B06D0082B04D04FF4EC71374800F0C7
:100C10001DFAE36A043B0B2B1DD80022324B1A60ED
:100C2000FFF736FC05462F4B1B6813F0007F18D0EA
:100C3000FFF72EFC401B0228F5D903204EE04FF4AD
:100C4000EB712A4800F002FAD0E740F2D7112748AA
:100C500000F0FCF9CFE740F2D911244800F0F6F992
:100C6000DBE7E369226A1343616A47F6C07292FACE
:100C7000A2F2B2FA82F201FA02F21343A26A520815
:100C8000013A4FF4403191FAA1F1B1FA81F18A4071
:100C90001343E16A4FF0706292FAA2F2B2FA82F262
:100CA00001FA02F213430F4A536001220E4B1A60FD
:100CB000FFF7EEFB04460B4B1B6813F0007F06D1D9
:100CC000FFF7E6FB001B0228F5D9032006E0002011
:100CD00004E0002002E0012000E0002003B030BD6D
:100CE0000120FBE70038024060004742342F000833
:100CF000214B9B6803F00C03042B3AD0082B01D046
:100D00001E4870471C4B586800F03F005B6813F4A6
:100D1000800F1ED01A4AB2FBF0F2174B586847F604
:100D2000C073184093FAA3F3B3FA83F3D84000FBDF
:100D300002F0114B5B6803F440334FF4403292FAF7
:100D4000A2F2B2FA82F2D34001335B00B0FBF3F0BF
:100D500070470A4AB2FBF0F2074B586847F6C07377
:100D6000184093FAA3F3B3FA83F3D84000FB02F0E0
:100D7000DFE70348704700BF003802400024F4005A
:100D800000127A0070B504460D460368013B0E2B35
:100D900011D8072D15D88A4B1B6803F00F039D420D
:100DA00015D9EBB2864A1370136803F00F039D4206
:100DB0000DD0012070BD40F23721824800F046F985
:100DC000E7E74FF40E717F4800F040F9E3E723684E
:100DD00013F0020F1DD0A368A3B1802B12D0902B6B
:100DE00010D0A02B0ED0B02B0CD0C02B0AD0D02B03
:100DF00008D0E02B06D0F02B04D040F24F217148F0
:100E000000F024F9704A936823F0F003A1680B43C3
:100E10009360236813F0010F6DD06368032B29D80A
:100E20006368012B2CD09A1E012A30D9664A1268B9
:100E300012F0020F00F0C28063498A6822F00302B8
:100E400013438B60FFF724FB06466368012B25D014
:100E5000022B32D0032B3FD05B4B9B6813F00C0F5F
:100E600049D0FFF715FB801B41F288339842F3D934
:100E7000032070BD40F25621524800F0E7F8CFE75A
:100E8000514A126812F4003FD6D1012070BD4E4A7B
:100E9000126812F0007FCFD1012070BD4A4B9B68D1
:100EA00003F00C03042B26D0FFF7F2FA801B41F26B
:100EB00088339842F2D9032070BD434B9B6803F0FE
:100EC0000C03082B17D0FFF7E3FA801B41F288339D
:100ED0009842F2D9032070BD3B4B9B6803F00C0392
:100EE0000C2B08D0FFF7D4FA801B41F288339842CC
:100EF000F2D9032070BD324B1B6803F00F039D42F3
:100F000009D2EAB22E4B1A701B6803F00F039D4200
:100F100001D0012070BD236813F0040F19D0E368DD
:100F200083B1B3F5805F0DD0B3F5A05F0AD0B3F500
:100F3000C05F07D0B3F5E05F04D04FF42D712148B6
:100F400000F084F8204A936823F4E053E1680B43EF
:100F50009360236813F0080F1AD0236983B1B3F5A7
:100F6000805F0DD0B3F5A05F0AD0B3F5C05F07D0A6
:100F7000B3F5E05F04D040F2BB21124800F066F800
:100F8000114A936823F46043216943EAC1039360E3
:100F9000FFF7AEFE0C4B9B6803F0F003F02292FAD1
:100FA000A2F2B2FA82F2D340084AD35CD840084B8E
:100FB00018600F20FFF734FA002070BD012070BDCB
:100FC000003C0240342F000800380240242F000863
:100FD0000C000020014B1868704700BF0C00002077
:100FE000FEE7000008B5034800F052F80120FFF7C3
:100FF000F7FF00BF642F000808B503460C4A1268CB
:101000005AB10B4A1068033323F003030344094A1F
:10101000934206D8064A136008BD0749044A116086
:10102000EFE701F0BBFA0C2303604FF0FF3008BD7F
:101030007C00002000FC01205C01002001230360F3
:10104000014B0B60704700BF0400002008B50A4642
:101050000146024800F004F8FFF7C4FF782F0008AB
:101060000FB400B583B004AB53F8042B0193802177
:10107000064801F0D9FA002803DD0146034800F0D4
:1010800047F803B05DF804EB04B07047840000201B
:1010900010B5044601F093FA0146204600F038F8F6
:1010A0000121024800F034F810BD00BF3C300008B8
:1010B0002DE9F04385B004460F4643560BB10E466A
:1010C0001EE0042528462146ABBE0446384605B03E
:1010D000BDE8F08314F9011B04AA1A4402F8101C9D
:1010E0000133AB42F6D304AA1344002203F8102CB8
:1010F000E9464FF0040840464946ABBE8046761BA1
:10110000002EE3D03546102E28BF10250023E8E737
:1011100008B5FFF7CDFF08BD08B500F093F8024B06
:10112000024A9A6008BD00BF00ED00E00000000820
:10113000F8B504460D4617461E462748FFF790FFB0
:1011400021682648FFF78CFF61682548FFF788FF74
:10115000A1682448FFF784FFE1682348FFF780FF78
:1011600021692248FFF77CFF61692148FFF778FF7A
:10117000A1692048FFF774FFE1691F48FFF770FF7E
:101180001E48FFF76DFF29461D48FFF769FF1D4CFC
:10119000E16A1D48FFF764FF216B1C48FFF760FF01
:1011A000E16B1B48FFF75CFF15F0800F0AD115F4C7
:1011B000004F0CD11748FFF753FF06991648FFF769
:1011C0004FFFF8BD39461548FFF74AFFEFE73146B4
:1011D0001348FFF745FFEDE7A42F0008B42F0008E0
:1011E000C42F0008D42F0008E42F0008F42F0008B3
:1011F000043000081430000824300008343000089F
:101200004030000800ED00E0503000086030000879
:1012100070300008A0300008A830000880300008B6
:101220009030000883691A888A4201D000207047F4
:101230000268033A012A03D8023383610120704710
:10124000002070470C4B1A6842F001021A6000211E
:1012500099601A6822F0847222F480321A60074A78
:101260005A601A6822F480221A60D9604FF0006236
:10127000034B9A60704700BF0038024010300024D2
:1012800000ED00E0224B9B6803F00C03042B14D00C
:10129000082B16D01BB11F4A1F4B1A6002E01D4AD3
:1012A0001D4B1A601A4B9B68C3F303131B4AD15C96
:1012B000194A1368CB4013607047194A164B1A60DD
:1012C000F0E7134B5A685B6803F03F0312F4800F9A
:1012D00013D0134AB2FBF3F20D4B5B68C3F38813D0
:1012E00003FB02F30A4A5268C2F301420132520080
:1012F000B3FBF2F3084A1360D4E7064AB2FBF3F2F9
:10130000034B5B68C3F3881303FB02F3EAE700BFF8
:10131000003802400024F4000C000020EC300008EB
:1013200000127A0010B4016042600373012303FAD3
:1013300002F2826010BC7047037B3BB9036803F57F
:10134000801380339B0282689A617047036803F5BB
:10135000801380339B024168103101228A409A61D8
:101360007047037B53B9036803F5801380339B02F6
:101370004168103101228A409A617047036803F581
:10138000801380339B0282689A61704710B586B0E3
:1013900004460D48026B2168012303FA01F10A4358
:1013A0000263A268019202930222049203932068CE
:1013B00000F58010803001A98002FFF705F9204672
:1013C000FFF7CFFF06B010BD00380240036803F5F9
:1013D000801380339B0219698268114203D15969D5
:1013E0000A435A617047596921EA02025A617047FB
:1013F000037B5BB9036803F5801380339B021A6992
:1014000083681A4214BF012000207047036803F567
:10141000801380339B021A6983681A420CBF012033
:1014200000207047034B1960024B1B68002BFBD157
:10143000704700BF0401002008B5FFF721F8044BF6
:101440001B681BB1024A1368013B136008BD00BF53
:101450000401002030B595B000240194214B1A6C92
:1014600042F080521A641B6C03F080530193019B7D
:1014700002941D4B1A6842F480421A601B6803F400
:1014800080430293029B0123089309934FF4800346
:101490000F93082310934FF4A8731193022512950C
:1014A000072313930E9508A8FFF70CFA0F23039355
:1014B000049505944FF4A05306934FF4805307937B
:1014C000052103A8FFF75EFCFFF784FD074BA3FB94
:1014D00000308009FFF744F80420FFF757F815B0F3
:1014E00030BD00BF0038024000700040D34D621094
:1014F00008B5FEF7ABFFFFF7ADFFFFF7C3FE08BD72
:10150000012800D070474FF6FF739942FAD110B509
:101510000E4C00230C2203212046FFF703FF00237B
:101520000D22032104F11000FFF7FCFE00230E2220
:10153000032104F12000FFF7F5FE00230F22032111
:1015400004F13000FFF7EEFE10BD00BF08010020DF
:1015500070B582B00721032000F09CF80146404896
:10156000FFF77EFD3F48FFF793FD3F4C21683F4862
:10157000FFF776FD23683E4AA2FB03239B09013B4C
:10158000B3F1807F09D23B4A5360F0213A4B83F894
:10159000231000239360072313600024032C06D834
:1015A000364800EB0410FFF7F1FE0134F6E70024A3
:1015B000032C06D8314800EB0410FFF7BDFE0134C0
:1015C000F6E74FF47A7101A8FFF72CFF0024032CF3
:1015D00006D82A4800EB0410FFF7C3FE0134F6E7F3
:1015E000FA2101A8FFF71EFF01212548FFF738FD6A
:1015F00000240126032C22D8204D05EB0415284693
:10160000FFF79AFE40F2EE2101A8FFF70BFF2846F4
:10161000FFF7A7FEFA2101A8FFF704FF01363146C4
:101620001748FFF71DFD0134E4E74FF47A7101A874
:10163000FFF7F8FE013631461148FFF711FD00258E
:10164000032DF2D80D4C04EB05142046FFF7BEFE27
:101650002046FFF7CDFE0028E7D10135F0E700BFB7
:10166000FC300008083100080C0000201C31000884
:10167000D34D621010E000E000ED00E00801002012
:101680003431000808B54FF6FF710120FFF738FF2D
:1016900008BD704782B001900091019800990844FC
:1016A00002B0704703685A004CBF43F0004323F078
:1016B00000431844704700BF61B32DE9F84F01F1B2
:1016C000FF3A90460646D146002707EB090404EB93
:1016D000D4746410E50071190846FFF7E3FFA245D2
:1016E000834605F10800304409D0FFF7DBFFC3450E
:1016F00000F1FF3005D8404509D2671CE5E7C34536
:1017000005D9A74202D004F1FF39DEE700210846DF
:10171000BDE8F88F08467047012807D0022807D097
:10172000044B00280CBF1846002070470248704741
:10173000024870471D1E0008211E0008251E0008D3
:1017400030B5244B83B004468D1E7BB301A92846D7
:10175000AFF3008020B301992A46FFF7ADFF0146A1
:10176000F0B1FFF79FFF4B68A064012B12D0002B54
:1017700001F1040020DBFFF795FF0023E0642365FF
:101780000368002B1CDBFFF78DFF00232061184648
:1017900003B030BD002323610523184603B030BDDC
:1017A000002323610923184603B030BD0A490B48C2
:1017B000091AC9100191CFE70123E0642365DFE72F
:1017C000C3F30360FFF7A8FF0028206114BF0023C4
:1017D0000923DCE7000000004C3200088C310008CF
:1017E0000368DA0710B5044606D49B0700F14800E9
:1017F00009D500F051FC2368590709D51A070ED501
:10180000DB0613D510BD00F03FFC23685907F5D463
:1018100004F1D00000F048FC23681A07F0D404F566
:10182000A87000F049FC2368DB06EBD404F5E870EF
:10183000BDE8104000F084BC036803B103441846BF
:10184000704700BF09207047704700BF70B504465D
:101850000D4608E02B6C63612A462369214601206E
:101860009847082808D1296C2046FFF769FF0646EB
:101870000028EFD0FFF7B6FB0728FBD13046296CD4
:10188000FFF7E2FF281D00F0F3FB00BF2DE9F04752
:101890000C1D054692460FCCADF5727D03AE0FC60A
:1018A0000FCC0FC60FCC0FC694E80F0002ACD5F8D2
:1018B0000C80D5F8189086E80F0000232846216C8C
:1018C0002360FFF73DFFBAF1000F074614BF0A2659
:1018D00009267FB1A36B46F010018DE810022A465D
:1018E000636401202B46C04778BB38460DF5727DF6
:1018F000BDE8F087236C6B614FF4F07221467AA843
:1019000000F052FE2B697AAA294630469847889BF8
:1019100082468DE81002314663642A462B46012038
:10192000C04790B94FF4F0727AA9204600F03CFE0F
:10193000BAF1080F06D1216C2846FFF701FF0926EE
:101940000746C6E7BAF1070F05D0092738460DF557
:10195000727DBDE8F0873846216CFFF775FF03A85C
:1019600000F086FB406C7047F0B5CB6B0B640E1D2E
:101970000F4604460FCEF9B001AD0FC50FCE0FC50F
:101980000FCE0FC596E80F004FF0FF3685E80F0029
:10199000009606E023696A462146984708280546CE
:1019A00008D110992046FFF7CBFE0028F2D009207D
:1019B00079B0F0BD6846FFF713FF062DF7D1394621
:1019C0002046FFF743FF00BF30B4DD6BC16082618A
:1019D00019461D64002230BC58E700BF70B5C668C8
:1019E00043690B6426B10122FFF750FFFFF7FAFAB3
:1019F00003690A4604460D46014602209847072817
:101A000007D0082803D129462046FFF71FFFFFF71C
:101A1000E9FA3046296CFFF717FF281D00F028FB74
:101A2000C2681AB1CA6B0A6400222FE79CE700BFA4
:101A3000704700BF836813B1014601201847704703
:101A400000B5042907D8DFE801F0030906090900F9
:101A50000BB90F2A05D902205DF804FB01205DF8BF
:101A600004FB00EB820218465368019A13605DF88C
:101A700004FB00BF10B584B0002303AC0A460094F9
:101A80001946FFF7DDFF039804B010BD00B5042927
:101A900007D8DFE801F00309060909000BB90F2A8E
:101AA00005D902205DF804FB01205DF804FB0199D3
:101AB00000EB82020968516018465DF804FB00BF24
:101AC00010B584B004AC002344F8042D0A460094F9
:101AD0001946FFF7DBFF04B010BD00BFF0B5D36BB4
:101AE0001364151D07460E460FCDADF50F7D17ACDF
:101AF0000FC40FCD0FC40FCD0FC495E80F004FF0EA
:101B0000FF3584E80F00169510E016A8FFF7D8FF00
:101B1000314616A8B84716AA694678B9049B08202A
:101B20009847052804460AD0092807D02699684610
:101B3000FFF706FE6A460C210028E6D0092416A805
:101B4000FFF74EFE20460DF50F7DF0BD2DE9F04F5D
:101B50000D46C96C8BB00C1D09680791914608941D
:101B600000F0030B1E46002B60D1090203230791EE
:101B70008DF825608DF824302B6DBBF1020F08BF66
:101B8000AC6B13F0010340D1019300F00803039301
:101B9000D4F80080B8F1000F39D0022E43D0B4F849
:101BA000008067880434AB6C27F0010A0F21484697
:101BB0009A44FFF75FFF824533D828F001039A4427
:101BC00050452CBF002001207F0007F0020708F0DD
:101BD000010847EA0807012F3ED035D3022F1CD158
:101BE000236823F000420292BBF1000F76D128B1A6
:101BF000039900297ED0002A00F0A680002B77DB15
:101C0000029B013304EB8304C2E700230193022EFD
:101C10003EDDFFF717FE002840D009200BB0BDE8DD
:101C2000F08F0020D0E767680834BCE7022BA3DC04
:101C30000B0CDAB209048DF82530022304EB820480
:101C400007918DF8243097E7BBF1000F02D00028F0
:101C500040F0BD8004349BE7BBF1000F25D1A8B153
:101C600094E80C00991C4FEAD272D6D005F15801C5
:101C70000133069100F0A380201DFFF7DDFD06ABC8
:101C800001462846AFF30080002877D108347FE76B
:101C900007A9484600F0EEFA0028BED1019B002BB0
:101CA0005CD108200BB0BDE8F08F0D2148462F6AAB
:101CB000FFF7E0FE8742E9D1AB6A9C42E6D12046BD
:101CC000FFF7F0FC0F2102464846FFF7F9FE4846B1
:101CD0002A460021FFF7F4FE07209FE70D21484622
:101CE0002F6AFFF7C7FE874258D02368002B87DA98
:101CF000043485E7029B3BB305F15803271DCDF85B
:101D000010B0DDF80C80DDF808A00596A3461C464F
:101D100002E0B245B04616D038460694FFF78CFD77
:101D200006AB014600222846AFF3008008F1010609
:101D300004370028EDD0029B059E43455C46DDF844
:101D400010B0D2D100E05C4648460D21FFF792FE6C
:101D5000069B2862AC626B6206205FE70F21484653
:101D6000FFF788FE0E2102464846FFF7A9FE4846C7
:101D7000294A0F21FFF7A4FE07204FE707460D2150
:101D80004846FFF777FE022F28621DD12B46069AA0
:101D900043F82C2F6B62AC6206203FE7AB6A9C4293
:101DA000A3D104220027A3180299A962EF622A6333
:101DB0006B632368BB421DDB0123019320E7484688
:101DC0000D21FFF757FE2862069B6B62E3E7204672
:101DD000FFF768FC04340646AC632846AFF3008086
:101DE00000283FF41AAF484632460F21FFF768FE3D
:101DF000072013E70846013004EB8000FFF752FC90
:101E00000F2102464846FFF75BFE48462A46394600
:101E1000FFF756FE072001E700000000002395E6CB
:101E2000012393E6022391E6F0B50446C5B00429E8
:101E30000DD8DFE801F053030C310F00012B4FEAFE
:101E4000124695B262D17219102A40F29B8002208C
:101E500045B0F0BD002BFAD1102AF8D82368D80677
:101E600000F1C68022AE3046019200F073F9A06BFB
:101E7000019A0023012505FA03F1114203D00168FC
:101E800046F8231004300133042BF4D1A06330460C
:101E900000F056F90020DBE7032BD8D1150C97B2E0
:101EA000EB19102BD3D823681E0700F1B58022AEA2
:101EB000304600F023F9ED00A36B4FB1043D7119DA
:101EC00003EBC70053F8042B41F8042F8342F9D1E8
:101ED0003046A36300F0F0F80020B9E7002BB6D13C
:101EE000A56B97B2201D012606FA03F1394203F1D2
:101EF000010302D0296801600435102B00F10400B1
:101F0000F2D112F400503BD1A563A1E7052B9ED17D
:101F10007719202F9BD80F2E66D92F46002D3AD146
:101F20002A460027002AA06B72DD00EBC2020146A0
:101F300044A800EBC6008C3851F8045B40F8045FFD
:101F40009142F9D1084697B1102E324644A938BFC4
:101F5000102201EBC202A2F5C4727900043A00EB30
:101F6000810150F8045B42F8045F8842F9D1012BEB
:101F700048D00F2EA16333D917B102A800F094F80E
:101F8000002065E70F2E3FF662AF00272268D107D9
:101F900017D4002F60D02268510745D4012B4DD0B3
:101FA0000F2E06D822A8019300F07AF8019B002F8B
:101FB000B6D002A8019300F07BF8019BC6F1100295
:101FC000B0E722F00101052B2160019320463BD0B0
:101FD00022F0030240F8482B00F05AF8019BD8E7A2
:101FE00022A800F059F8C7E7102FCED9103FCDE74F
:101FF00023F01003236004F5E870019200F0AAF8C2
:10200000019A2FE70431A16322A800F03DF8B7E759
:10201000002F99D10146AAE723F00803236004F5B5
:10202000A87000F06BF842E7204622F0040240F866
:10203000D02B019300F03CF8019BAFE722A801935D
:1020400000F026F8019BB9E741F0020140F8481B77
:1020500000F026F8019B9CE7012B03D00F2E3FF6E2
:102060005FAF9FE722A8019300F012F8019B57E7AA
:1020700000F1340191E838009C46A6464CF8045D16
:1020800090E8FF0FE54600BD90EC210B704700BFC4
:1020900080EC210B704700BF90EC200B704700BF15
:1020A00080EC200B704700BFD0EC200B704700BFC6
:1020B000C0EC200B704700BFF0EC0201F0EC021105
:1020C000F0EC0221F0EC0231F0EC0241F0EC0251B4
:1020D000F0EC0261F0EC0271F0EC0281F0EC0291A4
:1020E000F0EC02A1F0EC02B1F0EC02C1F0EC02D194
:1020F000F0EC02E1F0EC02F1704700BFE0EC02010D
:10210000E0EC0211E0EC0221E0EC0231E0EC0241F3
:10211000E0EC0251E0EC0261E0EC0271E0EC0281E3
:10212000E0EC0291E0EC02A1E0EC02B1E0EC02C1D3
:10213000E0EC02D1E0EC02E1E0EC02F1704700BF1C
:10214000B0FC0181B0FC0191B0FC01A1B0FC01B177
:10215000704700BFA0FC0181A0FC0191A0FC01A17F
:10216000A0FC01B1704700BFEC4600B52DE900505E
:102170002DE9FF1F4FF000032DE90C0001A9FFF727
:10218000F3FBDDF840E012B0704700BFEC4600B54D
:102190002DE900502DE9FF1F4FF000032DE90C0041
:1021A00001A9FFF71BFCDDF840E012B0704700BF4B
:1021B000EC4600B52DE900502DE9FF1F4FF000035C
:1021C0002DE90C0001A9FFF72BFCDDF840E012B06F
:1021D000704700BFEC4600B52DE900502DE9FF1F08
:1021E0004FF000032DE90C0001ABFFF7EDFBDDF82C
:1021F00040E012B0704700BFEC4600B52DE900503A
:102200002DE9FF1F4FF000032DE90C0001AAFFF795
:1022100065FCDDF840E012B0704700BF027A1AB9E1
:10222000437A43B9B02070470368013A02721A0238
:102230000260180E70474268013B10B44372136885
:102240000321141D01721A024460026010BC180EB2
:10225000704700BF00B585B003AA0023009219465D
:102260000C22FFF7EDFB039805B05DF804FB00BFFF
:10227000F0E700BF2DE9F043064685B00F464FF06A
:1022800000083846FFF7CAFFB028044623D00506E9
:1022900027D400230DF10C09194685000D22CDF835
:1022A00000903046FFF7CCFBEDB2039BCDF80090D9
:1022B000600605F104054CBF5D1BED1800231946AF
:1022C0000D2230460395FFF7E1FB3846FFF7A6FFE6
:1022D000B0280446DBD1B8F1000F00F09580002053
:1022E0001CE000F0F003802B5DD0902B19D0A02BC8
:1022F0002CD0B02B3FD0C02B6CD000F0F803D02BEB
:102300000BD100F00702013242F400220523012123
:102310003046FFF789FD0028B3D0092005B0BDE89D
:10232000F08300F00D030D2BF7D003AD002300F078
:102330000F02194600953046FFF782FB00230095F7
:1023400019460D223046FFF7A1FB9AE7C24302F07F
:1023500007034FF47F621A41010702F47F624FF0D6
:10236000000348BF42F4804219463046FFF75CFD47
:102370000028D2D185E7B12857D0B22868D0B32839
:1023800000F0958000F0FC03B42BC6D000F00702EB
:102390000132012342F4002219463046FFF744FD82
:1023A0000028BAD16DE73846FFF738FF240204430E
:1023B000B4F5004FB1D024010023A2B21946304633
:1023C000FFF732FD0028A8D114F4004F18BF4FF0DA
:1023D000010856E7C6287DD0C72800F0868000F0A7
:1023E000F803C02B00F09480C82800F09F80C92813
:1023F00093D13846FFF712FF020300F00F0002F4FA
:1024000070220130024381E703AC43460E2241466D
:1024100000943046FFF714FB0094304643460F22E9
:102420004146FFF733FB404678E73846FFF7F6FEB4
:1024300000283FF472AF10F0F0037FF46EAF024655
:1024400019463046FFF7F0FC00287FF466AF18E726
:1024500000230DF10C090D221946CDF800903046ED
:10246000FFF7EEFA3846FFF7D9FE02064FF00204F6
:102470000CD5039B00F07F00A04003443846039333
:10248000FFF7CCFE030604F10704F2D4039BCDF85A
:10249000009000F07F02A24003F501740023144471
:1024A00019460D2230460394FFF7F0FAE9E6384664
:1024B000FFF7B4FE010300F00F0001F47021421C8D
:1024C00001230A4330461946FFF7AEFC00287FF48B
:1024D00024AFD6E63846FFF7A1FE010300F00F0057
:1024E00001F47021421C0323EBE73846FFF796FE08
:1024F00000283FF412AF10F0F0037FF40EAF024655
:1025000004213046FFF790FC00287FF406AFB8E6C0
:1025100000F00F020132032342F420221946304614
:10252000FFF782FC00287FF4F8AEAAE63846FFF7F2
:1025300075FE00F0F00200F00F031032013343EAA1
:102540000232E3E610B5C36C84B05A6803208DF8FC
:102550000C00DC798DF80D4012020833084601A901
:1025600001920293FFF786FE04B010BD08B5FFF795
:102570007FFE806C08BD00BF08B5FFF779FEC06C18
:10258000C37900EB8300083008BD00BF08B5FEF733
:1025900029FD00BF08B5FFF7F9FF00BF014B186820
:1025A000704700BF1000002010B5431E0A4491423E
:1025B00000D110BD11F8014B03F8014FF7E70346B6
:1025C00013F8012B002AFBD1181A0138704730B5D7
:1025D000141E05469BB0184605DA8B232B604FF07E
:1025E000FF301BB030BD4FF40273ADF80C3014BF98
:1025F00004F1FF332346029305934FF6FF730091D6
:102600000491ADF80E3002461E9B6946284600F044
:1026100075F8431CBCBF8B232B60002CE1D0009BC2
:1026200000221A70DDE7000007B5009313460A4642
:10263000014603480068FFF7CAFF03B05DF804FBDA
:10264000100000202DE9F0478E689E4282460C461D
:102650009146984635D88A8912F4906F31D0256812
:1026600009696F1A6569022305EB450595FBF3F5CA
:1026700008F101033B449D4238BF1D46530531D547
:10268000294600F07DFB064650B90C23CAF80030FD
:10269000A38943F04003A3814FF0FF30BDE8F087EA
:1026A0003A462169FFF780FFA38923F4906343F042
:1026B0008003A381266165613E44ED1B2660A56011
:1026C0004646464528BF464632464946206800F001
:1026D000EFFAA3689B1BA36023681E4426600020BA
:1026E000BDE8F0872A4600F0A9FB06460028E1D1A4
:1026F0002169504600F0F6FAC7E700002DE9F04FD7
:102700009DB0804603938B891C060D4616460FD557
:102710000B696BB9402100F033FB2860286128B9B0
:102720000C23C8F800304FF0FF30C5E040236B6148
:102730000023099320238DF8293030238DF82A3087
:102740004FF0010B37463C4614F8013B002B3CD1BF
:10275000B7EB060A0BD05346324629464046FFF7F0
:1027600071FF013000F0A380099B534409933B782B
:10277000002B00F09C8000234FF0FF32049307935E
:10278000059206938DF853301A930522217850480C
:1027900000F03EFA671C049BD8B9D90644BF20223A
:1027A0008DF853201A0744BF2B228DF8532022782E
:1027B0002A2A16D0079A00210A20274601343B789E
:1027C000303B092B51D9C9B111E0252BC0D0274688
:1027D000B9E73F4A801A0BFA00F0184304903C46D0
:1027E000D3E7039A111D12680391002A01DB0792B7
:1027F00004E0524243F00203079204933B782E2BED
:102800000ED17B782A2B07F1010132D1039B1A1DCF
:102810001B680392002BB8BF4FF0FF3302370593BC
:102820002C4C39780322204600F0F2F938B14023CD
:10283000001B03FA00F0049B03430493013739782B
:1028400025488DF8281006227E1C00F0E1F90028AA
:1028500035D0224BFBB9039B073323F00703083322
:102860000393099B4B4409936CE700FB023201215F
:10287000A3E70023059318460A240F4601313A784E
:10288000303A092A03D9002BCAD00590C8E704FBC7
:1028900000200123F1E703AB00932A46104B04A963
:1028A0004046AFF30080B0F1FF3F8146D9D1AB89FC
:1028B0005B063FF538AF09981DB0BDE8F08F03AB5C
:1028C00000932A46064B04A9404600F081F8EAE747
:1028D00040310008463100084A310008000000007D
:1028E000452600082DE9F04791461F468A680B6986
:1028F000DDF820809342B8BF1346C9F8003091F844
:10290000432006460C4612B10133C9F80030236853
:10291000990642BFD9F800300233C9F80030256863
:1029200015F0060507D104F1190AE368D9F800206B
:102930009B1A9D4229DB94F843302268003318BF6C
:10294000012392062ED404F1430239463046C04793
:10295000013021D02368E568D9F8002003F0060390
:10296000042B08BFAD1AA36822690CBF25EAE575E0
:1029700000259342C4BF9B1AED184FF000091A348A
:102980004D451BD10020BDE8F08701235246394652
:102990003046C047013003D14FF0FF30BDE8F0872B
:1029A0000135C2E7E1185A1C302081F84300224467
:1029B00094F8451082F843100233C4E701232246FD
:1029C00039463046C0470130E6D009F10109D7E762
:1029D0002DE9F04317460A7E85B06E2A98460646D2
:1029E0000C460C9B01F1430E00F0BC801AD8632A00
:1029F0002ED00AD8002A00F0C880582A00F08A8019
:102A000004F1420584F842202AE0642A01D0692AB0
:102A1000F6D121681A6811F0800F23D0111D1960BA
:102A2000136827E0732A00F0B48008D86F2A2AD0F0
:102A3000702AE5D10A6842F020020A6003E0752A94
:102A400021D0782ADCD1782284F845206E4964E0D0
:102A50001A6801F14205111D1960136884F84230AB
:102A60000123A3E011F0400F02F104011960D7D057
:102A7000B2F90030002B03DA2D225B4284F84320A8
:102A800062490A2217E02068196810F0800F03D00D
:102A9000081D18600B6806E010F0400F01F10400FB
:102AA0001860F7D00B8859496F2A14BF0A220822F0
:102AB000002084F843006568A560002DC0F29C806A
:102AC000206820F004002060002B3FD1002D40F052
:102AD00095807546082A0BD12368DA0708D5236943
:102AE00062689A42DEBF302305F8013C05F1FF35EC
:102AF000AEEB05032361CDF800803B4603AA2146D7
:102B00003046FFF7EFFE013055D14FF0FF3005B0F2
:102B1000BDE8F08381F845203C492268186812F02E
:102B2000800F00F104051D6001D0036802E0550626
:102B3000FBD50388D00744BF42F0200222601BB9B6
:102B4000226822F0200222601022B1E77546B3FB12
:102B5000F2F002FB1033CB5C05F8013D0346002880
:102B6000F5D1B7E708681A68496910F0800F04D0FA
:102B7000101D18601368196007E010F0400F02F193
:102B8000040018601368F6D019800023236175468D
:102B9000B1E71A68111D196015686268002128469E
:102BA00000F036F808B1401B6060636823610023C1
:102BB00084F843309FE723692A4639463046C047A8
:102BC0000130A2D023689B0707D5002504F119091D
:102BD000E368039A9B1A9D4205DBE068039B9842D9
:102BE000B8BF184693E701234A4639463046C047E6
:102BF00001308AD00135EBE7002BA7D10B7884F8A0
:102C0000423004F1420565E76231000851310008A5
:102C100001F0FF01102A2BDB10F0070F08D010F88D
:102C2000013B013A8B422DD010F0070F42B3F6D191
:102C3000F0B441EA012141EA014122F007047FF0AA
:102C400000070023F0E80256083C85EA010586EA01
:102C5000010685FA47F5A3FA87F586FA47F6A5FA3D
:102C600087F68EB9EED1F0BC01F0FF0102F0070249
:102C700032B110F8013B013A83EA010313B1F8D1F4
:102C80000020704701387047002D06BF35460338D5
:102C9000073815F0010F07D1013015F4807F02BF0E
:102CA000013015F4C03F0130F0BC0138704700BF5F
:102CB000884210B501EB020303D8421E99420CD1A1
:102CC00010BD9842F9D28118D21AD34200D110BD5A
:102CD00013F8014D01F8014DF7E711F8014B02F827
:102CE000014FEBE738B50546002945D051F8043CC3
:102CF0000C1F002BB8BFE41800F0D6F81F4A136869
:102D0000104633B9636014602846BDE8384000F0CF
:102D1000CCB8A3420CD921686218934204BF1A6848
:102D20005B68636004BF521822600460ECE71346DE
:102D30005A680AB1A242FAD919685818A0420BD1B0
:102D400020680144581882421960DDD11068526829
:102D50005A6001441960D7E702D90C232B60D3E7EE
:102D6000206821188A4204BF11685268626004BF5B
:102D7000091821605C60C7E738BD00BF480100202A
:102D800070B5CD1C25F0030508350C2D38BF0C257A
:102D9000002D064601DBA94203D90C233360002035
:102DA00070BD00F081F8234A1468214691B9224C85
:102DB00023681BB9304600F067F82060294630468A
:102DC00000F062F8431C26D10C233360304600F03B
:102DD0006CF8E4E70B685B1B1AD40B2B0FD90B6064
:102DE000CD50CC18304600F060F804F10B00231DE4
:102DF00020F00700C31A1BD05A42E25070BD8C422B
:102E00000DBF63684B686360136018BF0C46E9E749
:102E10000C464968CAE7C41C24F00304A04205D04C
:102E2000211A304600F030F80130CDD02560D9E7C6
:102E300070BD00BF480100204C010020F8B50746D6
:102E400014460E4621B91146BDE8F840FFF798BF79
:102E500022B9FFF747FF25462846F8BD00F026F8BF
:102E600084420FD921463846FFF78AFF05460028DD
:102E7000F2D031462246FFF797FB31463846FFF73E
:102E800031FFE9E73546E7E738B5064C002305464C
:102E900008462360FEF7B0F8431C02D1236803B153
:102EA0002B6038BD540100207047704751F8040C66
:102EB0000028A0F10400BCBF0B58C01870470000E8
:102EC0002E2E2F73797374656D2F7372632F737445
:102ED0006D333266342D68616C2F73746D333266D6
:102EE0003478785F68616C5F636F727465782E63A5
:102EF000000000002E2E2F73797374656D2F73728E
:102F0000632F73746D333266342D68616C2F737464
:102F10006D3332663478785F68616C5F6770696FB3
:102F20002E630000000000000102030401020304FC
:102F3000060708092E2E2F73797374656D2F73722F
:102F4000632F73746D333266342D68616C2F737424
:102F50006D3332663478785F68616C5F7263632EBC
:102F60006300000061626F727428292C2065786903
:102F700074696E672E2E2E006173736572745F70B4
:102F80006172616D2829206661696C65643A20660A
:102F9000696C6520222573222C206C696E652025C2
:102FA000640A0000537461636B206672616D653A58
:102FB0000A000000205230203D2020253038580AD9
:102FC00000000000205231203D2020253038580AD2
:102FD00000000000205232203D2020253038580AC1
:102FE00000000000205233203D2020253038580AB0
:102FF0000000000020523132203D20253038580A90
:1030000000000000204C52203D2020253038580A76
:1030100000000000205043203D2020253038580A71
:103020000000000020505352203D20253038580A1F
:10303000000000004653522F4641523A0A00000059
:103040002043465352203D2020253038580A0000A6
:103050002048465352203D2020253038580A000091
:103060002044465352203D2020253038580A000085
:103070002041465352203D2020253038580A000078
:10308000204D4D464152203D20253038580A000041
:103090002042464152203D2020253038580A000069
:1030A0004D6973630A000000204C522F4558435F5E
:1030B00052455455524E3D20253038580A000000E4
:1030C0005B486172644661756C745D0A00000000C3
:1030D0005B4275734661756C745D0A005B55736184
:1030E00067654661756C745D0A00000000000000B1
:1030F00000000000010203040607080972657375E9
:103100006C743A2025640A0048656C6C6F2041524B
:103110004D20576F726C6421000000005379737466
:10312000656D20636C6F636B3A20257520487A0AC1
:10313000000000005365636F6E642025750A00006F
:10314000232D302B2000686C4C0065666745464790
:103150000030313233343536373839414243444513
:103160004600303132333435363738396162636482
:0331700065660091
:1031740008B10181B0B000840000000008B10181F1
:08318400B0B00084000000005F
:10318C0008E5FF7FB0B0B08010E5FF7F01000000C4
:10319C00A4E5FF7FB0A902803CE6FF7FB0B0A88019
:1031AC008CE6FF7F0100000098E6FF7FB0B0AA809C
:1031BC00D0E6FF7FAE71B280A0E7FF7F0100000078
:1031CC009CE7FF7FAB3F3880F4E7FF7F01000000F6
:1031DC0000E8FF7FB0B0AA803CE8FF7F0100000050
:1031EC00F0E8FF7FAB0EB28058E9FF7FB0AF0A80EA
:1031FC0020ECFF7F0100000024ECFF7FAB3F04803C
:10320C0064EEFF7F0100000040F0FF7F008404802B
:10321C0054F0FF7F0100000050F0FF7FB0AD048040
:10322C0018F3FF7FB0A8038038F3FF7F3CFFFF7FCC
:10323C003CF3FF7F40FFFF7F48F3FF7F010000005E
:10324C007856341280000020000000000024F400A6
:10325C00140000200000000000000000000000002E
:10326C000000000000000000000000000000000052
:10327C000000000000000000000000000000000042
:10328C000000000000000000000000000000000032
:10329C000000000000000000000000000000000022
:1032AC000000000000000000000000000000000012
:0832BC00000000003254769876
:040000050800018965
:00000001FF
